{"contracts/DeviceWipeRegistry.sol":{"DeviceWipeRegistry":{"abi":[{"anonymous":false,"inputs":[{"indexed":true,"internalType":"string","name":"deviceId","type":"string"},{"indexed":false,"internalType":"bytes32","name":"certHash","type":"bytes32"},{"indexed":false,"internalType":"string","name":"wipeMethod","type":"string"},{"indexed":false,"internalType":"uint256","name":"timestamp","type":"uint256"},{"indexed":true,"internalType":"address","name":"issuer","type":"address"}],"name":"CertificateRecorded","type":"event"},{"inputs":[{"internalType":"string","name":"deviceId","type":"string"}],"name":"getCertificate","outputs":[{"internalType":"bytes32","name":"certHash","type":"bytes32"},{"internalType":"string","name":"wipeMethod","type":"string"},{"internalType":"uint256","name":"timestamp","type":"uint256"},{"internalType":"address","name":"issuer","type":"address"}],"stateMutability":"view","type":"function"},{"inputs":[{"internalType":"string","name":"deviceId","type":"string"},{"internalType":"bytes32","name":"certHash","type":"bytes32"},{"internalType":"string","name":"wipeMethod","type":"string"}],"name":"recordCertificate","outputs":[],"stateMutability":"nonpayable","type":"function"},{"inputs":[{"internalType":"string","name":"deviceId","type":"string"},{"internalType":"bytes32","name":"certHash","type":"bytes32"}],"name":"verifyCertificate","outputs":[{"internalType":"bool","name":"valid","type":"bool"},{"internalType":"uint256","name":"timestamp","type":"uint256"},{"internalType":"address","name":"issuer","type":"address"}],"stateMutability":"view","type":"function"}],"evm":{"bytecode":{"linkReferences":{},"object":"608060405234801561001057600080fd5b50610fc2806100206000396000f3fe608060405234801561001057600080fd5b50600436106100415760003560e01c806307b86b731461004657806338015b4614610078578063ed0f2e7514610094575b600080fd5b610060600480360381019061005b91906107e3565b6100c7565b60405161006f939291906108b8565b60405180910390f35b610092600480360381019061008d91906108ef565b6102c7565b005b6100ae60048036038101906100a99190610984565b61050e565b6040516100be9493929190610a70565b60405180910390f35b600080600080600087876040516100df929190610afb565b90815260200160405180910390206040518060a00160405290816000820154815260200160018201805461011290610b43565b80601f016020809104026020016040519081016040528092919081815260200182805461013e90610b43565b801561018b5780601f106101605761010080835404028352916020019161018b565b820191906000526020600020905b81548152906001019060200180831161016e57829003601f168201915b505050505081526020016002820180546101a490610b43565b80601f01602080910402602001604051908101604052809291908181526020018280546101d090610b43565b801561021d5780601f106101f25761010080835404028352916020019161021d565b820191906000526020600020905b81548152906001019060200180831161020057829003601f168201915b50505050508152602001600382015481526020016004820160009054906101000a900473ffffffffffffffffffffffffffffffffffffffff1673ffffffffffffffffffffffffffffffffffffffff1673ffffffffffffffffffffffffffffffffffffffff1681525050905060008160600151036102a5576000806000935093509350506102be565b8481600001511481606001518260800151935093509350505b93509350939050565b60008086866040516102da929190610afb565b9081526020016040518091039020600301541461032c576040517f08c379a000000000000000000000000000000000000000000000000000000000815260040161032390610be6565b60405180910390fd5b6040518060a0016040528084815260200186868080601f016020809104026020016040519081016040528093929190818152602001838380828437600081840152601f19601f82011690508083019250505050505050815260200183838080601f016020809104026020016040519081016040528093929190818152602001838380828437600081840152601f19601f8201169050808301925050505050505081526020014281526020013373ffffffffffffffffffffffffffffffffffffffff1681525060008686604051610403929190610afb565b90815260200160405180910390206000820151816000015560208201518160010190816104309190610de1565b5060408201518160020190816104469190610de1565b506060820151816003015560808201518160040160006101000a81548173ffffffffffffffffffffffffffffffffffffffff021916908373ffffffffffffffffffffffffffffffffffffffff1602179055509050503373ffffffffffffffffffffffffffffffffffffffff1685856040516104c2929190610afb565b60405180910390207f7819c6f48118857fd31c2d95184bad462bbc83de72fe118d73e44c931c131164858585426040516104ff9493929190610ee0565b60405180910390a35050505050565b600060606000806000808787604051610528929190610afb565b90815260200160405180910390206040518060a00160405290816000820154815260200160018201805461055b90610b43565b80601f016020809104026020016040519081016040528092919081815260200182805461058790610b43565b80156105d45780601f106105a9576101008083540402835291602001916105d4565b820191906000526020600020905b8154815290600101906020018083116105b757829003601f168201915b505050505081526020016002820180546105ed90610b43565b80601f016020809104026020016040519081016040528092919081815260200182805461061990610b43565b80156106665780601f1061063b57610100808354040283529160200191610666565b820191906000526020600020905b81548152906001019060200180831161064957829003601f168201915b50505050508152602001600382015481526020016004820160009054906101000a900473ffffffffffffffffffffffffffffffffffffffff1673ffffffffffffffffffffffffffffffffffffffff1673ffffffffffffffffffffffffffffffffffffffff168152505090506000816060015103610718576040517f08c379a000000000000000000000000000000000000000000000000000000000815260040161070f90610f6c565b60405180910390fd5b806000015181604001518260600151836080015194509450945094505092959194509250565b600080fd5b600080fd5b600080fd5b600080fd5b600080fd5b60008083601f84011261076d5761076c610748565b5b8235905067ffffffffffffffff81111561078a5761078961074d565b5b6020830191508360018202830111156107a6576107a5610752565b5b9250929050565b6000819050919050565b6107c0816107ad565b81146107cb57600080fd5b50565b6000813590506107dd816107b7565b92915050565b6000806000604084860312156107fc576107fb61073e565b5b600084013567ffffffffffffffff81111561081a57610819610743565b5b61082686828701610757565b93509350506020610839868287016107ce565b9150509250925092565b60008115159050919050565b61085881610843565b82525050565b6000819050919050565b6108718161085e565b82525050565b600073ffffffffffffffffffffffffffffffffffffffff82169050919050565b60006108a282610877565b9050919050565b6108b281610897565b82525050565b60006060820190506108cd600083018661084f565b6108da6020830185610868565b6108e760408301846108a9565b949350505050565b60008060008060006060868803121561090b5761090a61073e565b5b600086013567ffffffffffffffff81111561092957610928610743565b5b61093588828901610757565b95509550506020610948888289016107ce565b935050604086013567ffffffffffffffff81111561096957610968610743565b5b61097588828901610757565b92509250509295509295909350565b6000806020838503121561099b5761099a61073e565b5b600083013567ffffffffffffffff8111156109b9576109b8610743565b5b6109c585828601610757565b92509250509250929050565b6109da816107ad565b82525050565b600081519050919050565b600082825260208201905092915050565b60005b83811015610a1a5780820151818401526020810190506109ff565b60008484015250505050565b6000601f19601f8301169050919050565b6000610a42826109e0565b610a4c81856109eb565b9350610a5c8185602086016109fc565b610a6581610a26565b840191505092915050565b6000608082019050610a8560008301876109d1565b8181036020830152610a978186610a37565b9050610aa66040830185610868565b610ab360608301846108a9565b95945050505050565b600081905092915050565b82818337600083830152505050565b6000610ae28385610abc565b9350610aef838584610ac7565b82840190509392505050565b6000610b08828486610ad6565b91508190509392505050565b7f4e487b7100000000000000000000000000000000000000000000000000000000600052602260045260246000fd5b60006002820490506001821680610b5b57607f821691505b602082108103610b6e57610b6d610b14565b5b50919050565b7f436572746966696361746520616c72656164792065786973747320666f72206460008201527f6576696365000000000000000000000000000000000000000000000000000000602082015250565b6000610bd06025836109eb565b9150610bdb82610b74565b604082019050919050565b60006020820190508181036000830152610bff81610bc3565b9050919050565b7f4e487b7100000000000000000000000000000000000000000000000000000000600052604160045260246000fd5b60008190508160005260206000209050919050565b60006020601f8301049050919050565b600082821b905092915050565b600060088302610c977fffffffffffffffffffffffffffffffffffffffffffffffffffffffffffffffff82610c5a565b610ca18683610c5a565b95508019841693508086168417925050509392505050565b6000819050919050565b6000610cde610cd9610cd48461085e565b610cb9565b61085e565b9050919050565b6000819050919050565b610cf883610cc3565b610d0c610d0482610ce5565b848454610c67565b825550505050565b600090565b610d21610d14565b610d2c818484610cef565b505050565b5b81811015610d5057610d45600082610d19565b600181019050610d32565b5050565b601f821115610d9557610d6681610c35565b610d6f84610c4a565b81016020851015610d7e578190505b610d92610d8a85610c4a565b830182610d31565b50505b505050565b600082821c905092915050565b6000610db860001984600802610d9a565b1980831691505092915050565b6000610dd18383610da7565b9150826002028217905092915050565b610dea826109e0565b67ffffffffffffffff811115610e0357610e02610c06565b5b610e0d8254610b43565b610e18828285610d54565b600060209050601f831160018114610e4b5760008415610e39578287015190505b610e438582610dc5565b865550610eab565b601f198416610e5986610c35565b60005b82811015610e8157848901518255600182019150602085019450602081019050610e5c565b86831015610e9e5784890151610e9a601f891682610da7565b8355505b6001600288020188555050505b505050505050565b6000610ebf83856109eb565b9350610ecc838584610ac7565b610ed583610a26565b840190509392505050565b6000606082019050610ef560008301876109d1565b8181036020830152610f08818587610eb3565b9050610f176040830184610868565b95945050505050565b7f4e6f20636572746966696361746520666f756e64000000000000000000000000600082015250565b6000610f566014836109eb565b9150610f6182610f20565b602082019050919050565b60006020820190508181036000830152610f8581610f49565b905091905056fea26469706673582212203cad775bf4971dc29bd4187cec49daa88fdb53a03356fe0e074428108e8aa73364736f6c63430008130033","opcodes":"PUSH1 0x80 PUSH1 0x40 MSTORE CALLVALUE DUP1 ISZERO PUSH2 0x10 JUMPI PUSH1 0x0 DUP1 REVERT JUMPDEST POP PUSH2 0xFC2 DUP1 PUSH2 0x20 PUSH1 0x0 CODECOPY PUSH1 0x0 RETURN INVALID PUSH1 0x80 PUSH1 0x40 MSTORE CALLVALUE DUP1 ISZERO PUSH2 0x10 JUMPI PUSH1 0x0 DUP1 REVERT JUMPDEST POP PUSH1 0x4 CALLDATASIZE LT PUSH2 0x41 JUMPI PUSH1 0x0 CALLDATALOAD PUSH1 0xE0 SHR DUP1 PUSH4 0x7B86B73 EQ PUSH2 0x46 JUMPI DUP1 PUSH4 0x38015B46 EQ PUSH2 0x78 JUMPI DUP1 PUSH4 0xED0F2E75 EQ PUSH2 0x94 JUMPI JUMPDEST PUSH1 0x0 DUP1 REVERT JUMPDEST PUSH2 0x60 PUSH1 0x4 DUP1 CALLDATASIZE SUB DUP2 ADD SWAP1 PUSH2 0x5B SWAP2 SWAP1 PUSH2 0x7E3 JUMP JUMPDEST PUSH2 0xC7 JUMP JUMPDEST PUSH1 0x40 MLOAD PUSH2 0x6F SWAP4 SWAP3 SWAP2 SWAP1 PUSH2 0x8B8 JUMP JUMPDEST PUSH1 0x40 MLOAD DUP1 SWAP2 SUB SWAP1 RETURN JUMPDEST PUSH2 0x92 PUSH1 0x4 DUP1 CALLDATASIZE SUB DUP2 ADD SWAP1 PUSH2 0x8D SWAP2 SWAP1 PUSH2 0x8EF JUMP JUMPDEST PUSH2 0x2C7 JUMP JUMPDEST STOP JUMPDEST PUSH2 0xAE PUSH1 0x4 DUP1 CALLDATASIZE SUB DUP2 ADD SWAP1 PUSH2 0xA9 SWAP2 SWAP1 PUSH2 0x984 JUMP JUMPDEST PUSH2 0x50E JUMP JUMPDEST PUSH1 0x40 MLOAD PUSH2 0xBE SWAP5 SWAP4 SWAP3 SWAP2 SWAP1 PUSH2 0xA70 JUMP JUMPDEST PUSH1 0x40 MLOAD DUP1 SWAP2 SUB SWAP1 RETURN JUMPDEST PUSH1 0x0 DUP1 PUSH1 0x0 DUP1 PUSH1 0x0 DUP8 DUP8 PUSH1 0x40 MLOAD PUSH2 0xDF SWAP3 SWAP2 SWAP1 PUSH2 0xAFB JUMP JUMPDEST SWAP1 DUP2 MSTORE PUSH1 0x20 ADD PUSH1 0x40 MLOAD DUP1 SWAP2 SUB SWAP1 KECCAK256 PUSH1 0x40 MLOAD DUP1 PUSH1 0xA0 ADD PUSH1 0x40 MSTORE SWAP1 DUP2 PUSH1 0x0 DUP3 ADD SLOAD DUP2 MSTORE PUSH1 0x20 ADD PUSH1 0x1 DUP3 ADD DUP1 SLOAD PUSH2 0x112 SWAP1 PUSH2 0xB43 JUMP JUMPDEST DUP1 PUSH1 0x1F ADD PUSH1 0x20 DUP1 SWAP2 DIV MUL PUSH1 0x20 ADD PUSH1 0x40 MLOAD SWAP1 DUP2 ADD PUSH1 0x40 MSTORE DUP1 SWAP3 SWAP2 SWAP1 DUP2 DUP2 MSTORE PUSH1 0x20 ADD DUP3 DUP1 SLOAD PUSH2 0x13E SWAP1 PUSH2 0xB43 JUMP JUMPDEST DUP1 ISZERO PUSH2 0x18B JUMPI DUP1 PUSH1 0x1F LT PUSH2 0x160 JUMPI PUSH2 0x100 DUP1 DUP4 SLOAD DIV MUL DUP4 MSTORE SWAP2 PUSH1 0x20 ADD SWAP2 PUSH2 0x18B JUMP JUMPDEST DUP3 ADD SWAP2 SWAP1 PUSH1 0x0 MSTORE PUSH1 0x20 PUSH1 0x0 KECCAK256 SWAP1 JUMPDEST DUP2 SLOAD DUP2 MSTORE SWAP1 PUSH1 0x1 ADD SWAP1 PUSH1 0x20 ADD DUP1 DUP4 GT PUSH2 0x16E JUMPI DUP3 SWAP1 SUB PUSH1 0x1F AND DUP3 ADD SWAP2 JUMPDEST POP POP POP POP POP DUP2 MSTORE PUSH1 0x20 ADD PUSH1 0x2 DUP3 ADD DUP1 SLOAD PUSH2 0x1A4 SWAP1 PUSH2 0xB43 JUMP JUMPDEST DUP1 PUSH1 0x1F ADD PUSH1 0x20 DUP1 SWAP2 DIV MUL PUSH1 0x20 ADD PUSH1 0x40 MLOAD SWAP1 DUP2 ADD PUSH1 0x40 MSTORE DUP1 SWAP3 SWAP2 SWAP1 DUP2 DUP2 MSTORE PUSH1 0x20 ADD DUP3 DUP1 SLOAD PUSH2 0x1D0 SWAP1 PUSH2 0xB43 JUMP JUMPDEST DUP1 ISZERO PUSH2 0x21D JUMPI DUP1 PUSH1 0x1F LT PUSH2 0x1F2 JUMPI PUSH2 0x100 DUP1 DUP4 SLOAD DIV MUL DUP4 MSTORE SWAP2 PUSH1 0x20 ADD SWAP2 PUSH2 0x21D JUMP JUMPDEST DUP3 ADD SWAP2 SWAP1 PUSH1 0x0 MSTORE PUSH1 0x20 PUSH1 0x0 KECCAK256 SWAP1 JUMPDEST DUP2 SLOAD DUP2 MSTORE SWAP1 PUSH1 0x1 ADD SWAP1 PUSH1 0x20 ADD DUP1 DUP4 GT PUSH2 0x200 JUMPI DUP3 SWAP1 SUB PUSH1 0x1F AND DUP3 ADD SWAP2 JUMPDEST POP POP POP POP POP DUP2 MSTORE PUSH1 0x20 ADD PUSH1 0x3 DUP3 ADD SLOAD DUP2 MSTORE PUSH1 0x20 ADD PUSH1 0x4 DUP3 ADD PUSH1 0x0 SWAP1 SLOAD SWAP1 PUSH2 0x100 EXP SWAP1 DIV PUSH20 0xFFFFFFFFFFFFFFFFFFFFFFFFFFFFFFFFFFFFFFFF AND PUSH20 0xFFFFFFFFFFFFFFFFFFFFFFFFFFFFFFFFFFFFFFFF AND PUSH20 0xFFFFFFFFFFFFFFFFFFFFFFFFFFFFFFFFFFFFFFFF AND DUP2 MSTORE POP POP SWAP1 POP PUSH1 0x0 DUP2 PUSH1 0x60 ADD MLOAD SUB PUSH2 0x2A5 JUMPI PUSH1 0x0 DUP1 PUSH1 0x0 SWAP4 POP SWAP4 POP SWAP4 POP POP PUSH2 0x2BE JUMP JUMPDEST DUP5 DUP2 PUSH1 0x0 ADD MLOAD EQ DUP2 PUSH1 0x60 ADD MLOAD DUP3 PUSH1 0x80 ADD MLOAD SWAP4 POP SWAP4 POP SWAP4 POP POP JUMPDEST SWAP4 POP SWAP4 POP SWAP4 SWAP1 POP JUMP JUMPDEST PUSH1 0x0 DUP1 DUP7 DUP7 PUSH1 0x40 MLOAD PUSH2 0x2DA SWAP3 SWAP2 SWAP1 PUSH2 0xAFB JUMP JUMPDEST SWAP1 DUP2 MSTORE PUSH1 0x20 ADD PUSH1 0x40 MLOAD DUP1 SWAP2 SUB SWAP1 KECCAK256 PUSH1 0x3 ADD SLOAD EQ PUSH2 0x32C JUMPI PUSH1 0x40 MLOAD PUSH32 0x8C379A000000000000000000000000000000000000000000000000000000000 DUP2 MSTORE PUSH1 0x4 ADD PUSH2 0x323 SWAP1 PUSH2 0xBE6 JUMP JUMPDEST PUSH1 0x40 MLOAD DUP1 SWAP2 SUB SWAP1 REVERT JUMPDEST PUSH1 0x40 MLOAD DUP1 PUSH1 0xA0 ADD PUSH1 0x40 MSTORE DUP1 DUP5 DUP2 MSTORE PUSH1 0x20 ADD DUP7 DUP7 DUP1 DUP1 PUSH1 0x1F ADD PUSH1 0x20 DUP1 SWAP2 DIV MUL PUSH1 0x20 ADD PUSH1 0x40 MLOAD SWAP1 DUP2 ADD PUSH1 0x40 MSTORE DUP1 SWAP4 SWAP3 SWAP2 SWAP1 DUP2 DUP2 MSTORE PUSH1 0x20 ADD DUP4 DUP4 DUP1 DUP3 DUP5 CALLDATACOPY PUSH1 0x0 DUP2 DUP5 ADD MSTORE PUSH1 0x1F NOT PUSH1 0x1F DUP3 ADD AND SWAP1 POP DUP1 DUP4 ADD SWAP3 POP POP POP POP POP POP POP DUP2 MSTORE PUSH1 0x20 ADD DUP4 DUP4 DUP1 DUP1 PUSH1 0x1F ADD PUSH1 0x20 DUP1 SWAP2 DIV MUL PUSH1 0x20 ADD PUSH1 0x40 MLOAD SWAP1 DUP2 ADD PUSH1 0x40 MSTORE DUP1 SWAP4 SWAP3 SWAP2 SWAP1 DUP2 DUP2 MSTORE PUSH1 0x20 ADD DUP4 DUP4 DUP1 DUP3 DUP5 CALLDATACOPY PUSH1 0x0 DUP2 DUP5 ADD MSTORE PUSH1 0x1F NOT PUSH1 0x1F DUP3 ADD AND SWAP1 POP DUP1 DUP4 ADD SWAP3 POP POP POP POP POP POP POP DUP2 MSTORE PUSH1 0x20 ADD TIMESTAMP DUP2 MSTORE PUSH1 0x20 ADD CALLER PUSH20 0xFFFFFFFFFFFFFFFFFFFFFFFFFFFFFFFFFFFFFFFF AND DUP2 MSTORE POP PUSH1 0x0 DUP7 DUP7 PUSH1 0x40 MLOAD PUSH2 0x403 SWAP3 SWAP2 SWAP1 PUSH2 0xAFB JUMP JUMPDEST SWAP1 DUP2 MSTORE PUSH1 0x20 ADD PUSH1 0x40 MLOAD DUP1 SWAP2 SUB SWAP1 KECCAK256 PUSH1 0x0 DUP3 ADD MLOAD DUP2 PUSH1 0x0 ADD SSTORE PUSH1 0x20 DUP3 ADD MLOAD DUP2 PUSH1 0x1 ADD SWAP1 DUP2 PUSH2 0x430 SWAP2 SWAP1 PUSH2 0xDE1 JUMP JUMPDEST POP PUSH1 0x40 DUP3 ADD MLOAD DUP2 PUSH1 0x2 ADD SWAP1 DUP2 PUSH2 0x446 SWAP2 SWAP1 PUSH2 0xDE1 JUMP JUMPDEST POP PUSH1 0x60 DUP3 ADD MLOAD DUP2 PUSH1 0x3 ADD SSTORE PUSH1 0x80 DUP3 ADD MLOAD DUP2 PUSH1 0x4 ADD PUSH1 0x0 PUSH2 0x100 EXP DUP2 SLOAD DUP2 PUSH20 0xFFFFFFFFFFFFFFFFFFFFFFFFFFFFFFFFFFFFFFFF MUL NOT AND SWAP1 DUP4 PUSH20 0xFFFFFFFFFFFFFFFFFFFFFFFFFFFFFFFFFFFFFFFF AND MUL OR SWAP1 SSTORE POP SWAP1 POP POP CALLER PUSH20 0xFFFFFFFFFFFFFFFFFFFFFFFFFFFFFFFFFFFFFFFF AND DUP6 DUP6 PUSH1 0x40 MLOAD PUSH2 0x4C2 SWAP3 SWAP2 SWAP1 PUSH2 0xAFB JUMP JUMPDEST PUSH1 0x40 MLOAD DUP1 SWAP2 SUB SWAP1 KECCAK256 PUSH32 0x7819C6F48118857FD31C2D95184BAD462BBC83DE72FE118D73E44C931C131164 DUP6 DUP6 DUP6 TIMESTAMP PUSH1 0x40 MLOAD PUSH2 0x4FF SWAP5 SWAP4 SWAP3 SWAP2 SWAP1 PUSH2 0xEE0 JUMP JUMPDEST PUSH1 0x40 MLOAD DUP1 SWAP2 SUB SWAP1 LOG3 POP POP POP POP POP JUMP JUMPDEST PUSH1 0x0 PUSH1 0x60 PUSH1 0x0 DUP1 PUSH1 0x0 DUP1 DUP8 DUP8 PUSH1 0x40 MLOAD PUSH2 0x528 SWAP3 SWAP2 SWAP1 PUSH2 0xAFB JUMP JUMPDEST SWAP1 DUP2 MSTORE PUSH1 0x20 ADD PUSH1 0x40 MLOAD DUP1 SWAP2 SUB SWAP1 KECCAK256 PUSH1 0x40 MLOAD DUP1 PUSH1 0xA0 ADD PUSH1 0x40 MSTORE SWAP1 DUP2 PUSH1 0x0 DUP3 ADD SLOAD DUP2 MSTORE PUSH1 0x20 ADD PUSH1 0x1 DUP3 ADD DUP1 SLOAD PUSH2 0x55B SWAP1 PUSH2 0xB43 JUMP JUMPDEST DUP1 PUSH1 0x1F ADD PUSH1 0x20 DUP1 SWAP2 DIV MUL PUSH1 0x20 ADD PUSH1 0x40 MLOAD SWAP1 DUP2 ADD PUSH1 0x40 MSTORE DUP1 SWAP3 SWAP2 SWAP1 DUP2 DUP2 MSTORE PUSH1 0x20 ADD DUP3 DUP1 SLOAD PUSH2 0x587 SWAP1 PUSH2 0xB43 JUMP JUMPDEST DUP1 ISZERO PUSH2 0x5D4 JUMPI DUP1 PUSH1 0x1F LT PUSH2 0x5A9 JUMPI PUSH2 0x100 DUP1 DUP4 SLOAD DIV MUL DUP4 MSTORE SWAP2 PUSH1 0x20 ADD SWAP2 PUSH2 0x5D4 JUMP JUMPDEST DUP3 ADD SWAP2 SWAP1 PUSH1 0x0 MSTORE PUSH1 0x20 PUSH1 0x0 KECCAK256 SWAP1 JUMPDEST DUP2 SLOAD DUP2 MSTORE SWAP1 PUSH1 0x1 ADD SWAP1 PUSH1 0x20 ADD DUP1 DUP4 GT PUSH2 0x5B7 JUMPI DUP3 SWAP1 SUB PUSH1 0x1F AND DUP3 ADD SWAP2 JUMPDEST POP POP POP POP POP DUP2 MSTORE PUSH1 0x20 ADD PUSH1 0x2 DUP3 ADD DUP1 SLOAD PUSH2 0x5ED SWAP1 PUSH2 0xB43 JUMP JUMPDEST DUP1 PUSH1 0x1F ADD PUSH1 0x20 DUP1 SWAP2 DIV MUL PUSH1 0x20 ADD PUSH1 0x40 MLOAD SWAP1 DUP2 ADD PUSH1 0x40 MSTORE DUP1 SWAP3 SWAP2 SWAP1 DUP2 DUP2 MSTORE PUSH1 0x20 ADD DUP3 DUP1 SLOAD PUSH2 0x619 SWAP1 PUSH2 0xB43 JUMP JUMPDEST DUP1 ISZERO PUSH2 0x666 JUMPI DUP1 PUSH1 0x1F LT PUSH2 0x63B JUMPI PUSH2 0x100 DUP1 DUP4 SLOAD DIV MUL DUP4 MSTORE SWAP2 PUSH1 0x20 ADD SWAP2 PUSH2 0x666 JUMP JUMPDEST DUP3 ADD SWAP2 SWAP1 PUSH1 0x0 MSTORE PUSH1 0x20 PUSH1 0x0 KECCAK256 SWAP1 JUMPDEST DUP2 SLOAD DUP2 MSTORE SWAP1 PUSH1 0x1 ADD SWAP1 PUSH1 0x20 ADD DUP1 DUP4 GT PUSH2 0x649 JUMPI DUP3 SWAP1 SUB PUSH1 0x1F AND DUP3 ADD SWAP2 JUMPDEST POP POP POP POP POP DUP2 MSTORE PUSH1 0x20 ADD PUSH1 0x3 DUP3 ADD SLOAD DUP2 MSTORE PUSH1 0x20 ADD PUSH1 0x4 DUP3 ADD PUSH1 0x0 SWAP1 SLOAD SWAP1 PUSH2 0x100 EXP SWAP1 DIV PUSH20 0xFFFFFFFFFFFFFFFFFFFFFFFFFFFFFFFFFFFFFFFF AND PUSH20 0xFFFFFFFFFFFFFFFFFFFFFFFFFFFFFFFFFFFFFFFF AND PUSH20 0xFFFFFFFFFFFFFFFFFFFFFFFFFFFFFFFFFFFFFFFF AND DUP2 MSTORE POP POP SWAP1 POP PUSH1 0x0 DUP2 PUSH1 0x60 ADD MLOAD SUB PUSH2 0x718 JUMPI PUSH1 0x40 MLOAD PUSH32 0x8C379A000000000000000000000000000000000000000000000000000000000 DUP2 MSTORE PUSH1 0x4 ADD PUSH2 0x70F SWAP1 PUSH2 0xF6C JUMP JUMPDEST PUSH1 0x40 MLOAD DUP1 SWAP2 SUB SWAP1 REVERT JUMPDEST DUP1 PUSH1 0x0 ADD MLOAD DUP2 PUSH1 0x40 ADD MLOAD DUP3 PUSH1 0x60 ADD MLOAD DUP4 PUSH1 0x80 ADD MLOAD SWAP5 POP SWAP5 POP SWAP5 POP SWAP5 POP POP SWAP3 SWAP6 SWAP2 SWAP5 POP SWAP3 POP JUMP JUMPDEST PUSH1 0x0 DUP1 REVERT JUMPDEST PUSH1 0x0 DUP1 REVERT JUMPDEST PUSH1 0x0 DUP1 REVERT JUMPDEST PUSH1 0x0 DUP1 REVERT JUMPDEST PUSH1 0x0 DUP1 REVERT JUMPDEST PUSH1 0x0 DUP1 DUP4 PUSH1 0x1F DUP5 ADD SLT PUSH2 0x76D JUMPI PUSH2 0x76C PUSH2 0x748 JUMP JUMPDEST JUMPDEST DUP3 CALLDATALOAD SWAP1 POP PUSH8 0xFFFFFFFFFFFFFFFF DUP2 GT ISZERO PUSH2 0x78A JUMPI PUSH2 0x789 PUSH2 0x74D JUMP JUMPDEST JUMPDEST PUSH1 0x20 DUP4 ADD SWAP2 POP DUP4 PUSH1 0x1 DUP3 MUL DUP4 ADD GT ISZERO PUSH2 0x7A6 JUMPI PUSH2 0x7A5 PUSH2 0x752 JUMP JUMPDEST JUMPDEST SWAP3 POP SWAP3 SWAP1 POP JUMP JUMPDEST PUSH1 0x0 DUP2 SWAP1 POP SWAP2 SWAP1 POP JUMP JUMPDEST PUSH2 0x7C0 DUP2 PUSH2 0x7AD JUMP JUMPDEST DUP2 EQ PUSH2 0x7CB JUMPI PUSH1 0x0 DUP1 REVERT JUMPDEST POP JUMP JUMPDEST PUSH1 0x0 DUP2 CALLDATALOAD SWAP1 POP PUSH2 0x7DD DUP2 PUSH2 0x7B7 JUMP JUMPDEST SWAP3 SWAP2 POP POP JUMP JUMPDEST PUSH1 0x0 DUP1 PUSH1 0x0 PUSH1 0x40 DUP5 DUP7 SUB SLT ISZERO PUSH2 0x7FC JUMPI PUSH2 0x7FB PUSH2 0x73E JUMP JUMPDEST JUMPDEST PUSH1 0x0 DUP5 ADD CALLDATALOAD PUSH8 0xFFFFFFFFFFFFFFFF DUP2 GT ISZERO PUSH2 0x81A JUMPI PUSH2 0x819 PUSH2 0x743 JUMP JUMPDEST JUMPDEST PUSH2 0x826 DUP7 DUP3 DUP8 ADD PUSH2 0x757 JUMP JUMPDEST SWAP4 POP SWAP4 POP POP PUSH1 0x20 PUSH2 0x839 DUP7 DUP3 DUP8 ADD PUSH2 0x7CE JUMP JUMPDEST SWAP2 POP POP SWAP3 POP SWAP3 POP SWAP3 JUMP JUMPDEST PUSH1 0x0 DUP2 ISZERO ISZERO SWAP1 POP SWAP2 SWAP1 POP JUMP JUMPDEST PUSH2 0x858 DUP2 PUSH2 0x843 JUMP JUMPDEST DUP3 MSTORE POP POP JUMP JUMPDEST PUSH1 0x0 DUP2 SWAP1 POP SWAP2 SWAP1 POP JUMP JUMPDEST PUSH2 0x871 DUP2 PUSH2 0x85E JUMP JUMPDEST DUP3 MSTORE POP POP JUMP JUMPDEST PUSH1 0x0 PUSH20 0xFFFFFFFFFFFFFFFFFFFFFFFFFFFFFFFFFFFFFFFF DUP3 AND SWAP1 POP SWAP2 SWAP1 POP JUMP JUMPDEST PUSH1 0x0 PUSH2 0x8A2 DUP3 PUSH2 0x877 JUMP JUMPDEST SWAP1 POP SWAP2 SWAP1 POP JUMP JUMPDEST PUSH2 0x8B2 DUP2 PUSH2 0x897 JUMP JUMPDEST DUP3 MSTORE POP POP JUMP JUMPDEST PUSH1 0x0 PUSH1 0x60 DUP3 ADD SWAP1 POP PUSH2 0x8CD PUSH1 0x0 DUP4 ADD DUP7 PUSH2 0x84F JUMP JUMPDEST PUSH2 0x8DA PUSH1 0x20 DUP4 ADD DUP6 PUSH2 0x868 JUMP JUMPDEST PUSH2 0x8E7 PUSH1 0x40 DUP4 ADD DUP5 PUSH2 0x8A9 JUMP JUMPDEST SWAP5 SWAP4 POP POP POP POP JUMP JUMPDEST PUSH1 0x0 DUP1 PUSH1 0x0 DUP1 PUSH1 0x0 PUSH1 0x60 DUP7 DUP9 SUB SLT ISZERO PUSH2 0x90B JUMPI PUSH2 0x90A PUSH2 0x73E JUMP JUMPDEST JUMPDEST PUSH1 0x0 DUP7 ADD CALLDATALOAD PUSH8 0xFFFFFFFFFFFFFFFF DUP2 GT ISZERO PUSH2 0x929 JUMPI PUSH2 0x928 PUSH2 0x743 JUMP JUMPDEST JUMPDEST PUSH2 0x935 DUP9 DUP3 DUP10 ADD PUSH2 0x757 JUMP JUMPDEST SWAP6 POP SWAP6 POP POP PUSH1 0x20 PUSH2 0x948 DUP9 DUP3 DUP10 ADD PUSH2 0x7CE JUMP JUMPDEST SWAP4 POP POP PUSH1 0x40 DUP7 ADD CALLDATALOAD PUSH8 0xFFFFFFFFFFFFFFFF DUP2 GT ISZERO PUSH2 0x969 JUMPI PUSH2 0x968 PUSH2 0x743 JUMP JUMPDEST JUMPDEST PUSH2 0x975 DUP9 DUP3 DUP10 ADD PUSH2 0x757 JUMP JUMPDEST SWAP3 POP SWAP3 POP POP SWAP3 SWAP6 POP SWAP3 SWAP6 SWAP1 SWAP4 POP JUMP JUMPDEST PUSH1 0x0 DUP1 PUSH1 0x20 DUP4 DUP6 SUB SLT ISZERO PUSH2 0x99B JUMPI PUSH2 0x99A PUSH2 0x73E JUMP JUMPDEST JUMPDEST PUSH1 0x0 DUP4 ADD CALLDATALOAD PUSH8 0xFFFFFFFFFFFFFFFF DUP2 GT ISZERO PUSH2 0x9B9 JUMPI PUSH2 0x9B8 PUSH2 0x743 JUMP JUMPDEST JUMPDEST PUSH2 0x9C5 DUP6 DUP3 DUP7 ADD PUSH2 0x757 JUMP JUMPDEST SWAP3 POP SWAP3 POP POP SWAP3 POP SWAP3 SWAP1 POP JUMP JUMPDEST PUSH2 0x9DA DUP2 PUSH2 0x7AD JUMP JUMPDEST DUP3 MSTORE POP POP JUMP JUMPDEST PUSH1 0x0 DUP2 MLOAD SWAP1 POP SWAP2 SWAP1 POP JUMP JUMPDEST PUSH1 0x0 DUP3 DUP3 MSTORE PUSH1 0x20 DUP3 ADD SWAP1 POP SWAP3 SWAP2 POP POP JUMP JUMPDEST PUSH1 0x0 JUMPDEST DUP4 DUP2 LT ISZERO PUSH2 0xA1A JUMPI DUP1 DUP3 ADD MLOAD DUP2 DUP5 ADD MSTORE PUSH1 0x20 DUP2 ADD SWAP1 POP PUSH2 0x9FF JUMP JUMPDEST PUSH1 0x0 DUP5 DUP5 ADD MSTORE POP POP POP POP JUMP JUMPDEST PUSH1 0x0 PUSH1 0x1F NOT PUSH1 0x1F DUP4 ADD AND SWAP1 POP SWAP2 SWAP1 POP JUMP JUMPDEST PUSH1 0x0 PUSH2 0xA42 DUP3 PUSH2 0x9E0 JUMP JUMPDEST PUSH2 0xA4C DUP2 DUP6 PUSH2 0x9EB JUMP JUMPDEST SWAP4 POP PUSH2 0xA5C DUP2 DUP6 PUSH1 0x20 DUP7 ADD PUSH2 0x9FC JUMP JUMPDEST PUSH2 0xA65 DUP2 PUSH2 0xA26 JUMP JUMPDEST DUP5 ADD SWAP2 POP POP SWAP3 SWAP2 POP POP JUMP JUMPDEST PUSH1 0x0 PUSH1 0x80 DUP3 ADD SWAP1 POP PUSH2 0xA85 PUSH1 0x0 DUP4 ADD DUP8 PUSH2 0x9D1 JUMP JUMPDEST DUP2 DUP2 SUB PUSH1 0x20 DUP4 ADD MSTORE PUSH2 0xA97 DUP2 DUP7 PUSH2 0xA37 JUMP JUMPDEST SWAP1 POP PUSH2 0xAA6 PUSH1 0x40 DUP4 ADD DUP6 PUSH2 0x868 JUMP JUMPDEST PUSH2 0xAB3 PUSH1 0x60 DUP4 ADD DUP5 PUSH2 0x8A9 JUMP JUMPDEST SWAP6 SWAP5 POP POP POP POP POP JUMP JUMPDEST PUSH1 0x0 DUP2 SWAP1 POP SWAP3 SWAP2 POP POP JUMP JUMPDEST DUP3 DUP2 DUP4 CALLDATACOPY PUSH1 0x0 DUP4 DUP4 ADD MSTORE POP POP POP JUMP JUMPDEST PUSH1 0x0 PUSH2 0xAE2 DUP4 DUP6 PUSH2 0xABC JUMP JUMPDEST SWAP4 POP PUSH2 0xAEF DUP4 DUP6 DUP5 PUSH2 0xAC7 JUMP JUMPDEST DUP3 DUP5 ADD SWAP1 POP SWAP4 SWAP3 POP POP POP JUMP JUMPDEST PUSH1 0x0 PUSH2 0xB08 DUP3 DUP5 DUP7 PUSH2 0xAD6 JUMP JUMPDEST SWAP2 POP DUP2 SWAP1 POP SWAP4 SWAP3 POP POP POP JUMP JUMPDEST PUSH32 0x4E487B7100000000000000000000000000000000000000000000000000000000 PUSH1 0x0 MSTORE PUSH1 0x22 PUSH1 0x4 MSTORE PUSH1 0x24 PUSH1 0x0 REVERT JUMPDEST PUSH1 0x0 PUSH1 0x2 DUP3 DIV SWAP1 POP PUSH1 0x1 DUP3 AND DUP1 PUSH2 0xB5B JUMPI PUSH1 0x7F DUP3 AND SWAP2 POP JUMPDEST PUSH1 0x20 DUP3 LT DUP2 SUB PUSH2 0xB6E JUMPI PUSH2 0xB6D PUSH2 0xB14 JUMP JUMPDEST JUMPDEST POP SWAP2 SWAP1 POP JUMP JUMPDEST PUSH32 0x436572746966696361746520616C72656164792065786973747320666F722064 PUSH1 0x0 DUP3 ADD MSTORE PUSH32 0x6576696365000000000000000000000000000000000000000000000000000000 PUSH1 0x20 DUP3 ADD MSTORE POP JUMP JUMPDEST PUSH1 0x0 PUSH2 0xBD0 PUSH1 0x25 DUP4 PUSH2 0x9EB JUMP JUMPDEST SWAP2 POP PUSH2 0xBDB DUP3 PUSH2 0xB74 JUMP JUMPDEST PUSH1 0x40 DUP3 ADD SWAP1 POP SWAP2 SWAP1 POP JUMP JUMPDEST PUSH1 0x0 PUSH1 0x20 DUP3 ADD SWAP1 POP DUP2 DUP2 SUB PUSH1 0x0 DUP4 ADD MSTORE PUSH2 0xBFF DUP2 PUSH2 0xBC3 JUMP JUMPDEST SWAP1 POP SWAP2 SWAP1 POP JUMP JUMPDEST PUSH32 0x4E487B7100000000000000000000000000000000000000000000000000000000 PUSH1 0x0 MSTORE PUSH1 0x41 PUSH1 0x4 MSTORE PUSH1 0x24 PUSH1 0x0 REVERT JUMPDEST PUSH1 0x0 DUP2 SWAP1 POP DUP2 PUSH1 0x0 MSTORE PUSH1 0x20 PUSH1 0x0 KECCAK256 SWAP1 POP SWAP2 SWAP1 POP JUMP JUMPDEST PUSH1 0x0 PUSH1 0x20 PUSH1 0x1F DUP4 ADD DIV SWAP1 POP SWAP2 SWAP1 POP JUMP JUMPDEST PUSH1 0x0 DUP3 DUP3 SHL SWAP1 POP SWAP3 SWAP2 POP POP JUMP JUMPDEST PUSH1 0x0 PUSH1 0x8 DUP4 MUL PUSH2 0xC97 PUSH32 0xFFFFFFFFFFFFFFFFFFFFFFFFFFFFFFFFFFFFFFFFFFFFFFFFFFFFFFFFFFFFFFFF DUP3 PUSH2 0xC5A JUMP JUMPDEST PUSH2 0xCA1 DUP7 DUP4 PUSH2 0xC5A JUMP JUMPDEST SWAP6 POP DUP1 NOT DUP5 AND SWAP4 POP DUP1 DUP7 AND DUP5 OR SWAP3 POP POP POP SWAP4 SWAP3 POP POP POP JUMP JUMPDEST PUSH1 0x0 DUP2 SWAP1 POP SWAP2 SWAP1 POP JUMP JUMPDEST PUSH1 0x0 PUSH2 0xCDE PUSH2 0xCD9 PUSH2 0xCD4 DUP5 PUSH2 0x85E JUMP JUMPDEST PUSH2 0xCB9 JUMP JUMPDEST PUSH2 0x85E JUMP JUMPDEST SWAP1 POP SWAP2 SWAP1 POP JUMP JUMPDEST PUSH1 0x0 DUP2 SWAP1 POP SWAP2 SWAP1 POP JUMP JUMPDEST PUSH2 0xCF8 DUP4 PUSH2 0xCC3 JUMP JUMPDEST PUSH2 0xD0C PUSH2 0xD04 DUP3 PUSH2 0xCE5 JUMP JUMPDEST DUP5 DUP5 SLOAD PUSH2 0xC67 JUMP JUMPDEST DUP3 SSTORE POP POP POP POP JUMP JUMPDEST PUSH1 0x0 SWAP1 JUMP JUMPDEST PUSH2 0xD21 PUSH2 0xD14 JUMP JUMPDEST PUSH2 0xD2C DUP2 DUP5 DUP5 PUSH2 0xCEF JUMP JUMPDEST POP POP POP JUMP JUMPDEST JUMPDEST DUP2 DUP2 LT ISZERO PUSH2 0xD50 JUMPI PUSH2 0xD45 PUSH1 0x0 DUP3 PUSH2 0xD19 JUMP JUMPDEST PUSH1 0x1 DUP2 ADD SWAP1 POP PUSH2 0xD32 JUMP JUMPDEST POP POP JUMP JUMPDEST PUSH1 0x1F DUP3 GT ISZERO PUSH2 0xD95 JUMPI PUSH2 0xD66 DUP2 PUSH2 0xC35 JUMP JUMPDEST PUSH2 0xD6F DUP5 PUSH2 0xC4A JUMP JUMPDEST DUP2 ADD PUSH1 0x20 DUP6 LT ISZERO PUSH2 0xD7E JUMPI DUP2 SWAP1 POP JUMPDEST PUSH2 0xD92 PUSH2 0xD8A DUP6 PUSH2 0xC4A JUMP JUMPDEST DUP4 ADD DUP3 PUSH2 0xD31 JUMP JUMPDEST POP POP JUMPDEST POP POP POP JUMP JUMPDEST PUSH1 0x0 DUP3 DUP3 SHR SWAP1 POP SWAP3 SWAP2 POP POP JUMP JUMPDEST PUSH1 0x0 PUSH2 0xDB8 PUSH1 0x0 NOT DUP5 PUSH1 0x8 MUL PUSH2 0xD9A JUMP JUMPDEST NOT DUP1 DUP4 AND SWAP2 POP POP SWAP3 SWAP2 POP POP JUMP JUMPDEST PUSH1 0x0 PUSH2 0xDD1 DUP4 DUP4 PUSH2 0xDA7 JUMP JUMPDEST SWAP2 POP DUP3 PUSH1 0x2 MUL DUP3 OR SWAP1 POP SWAP3 SWAP2 POP POP JUMP JUMPDEST PUSH2 0xDEA DUP3 PUSH2 0x9E0 JUMP JUMPDEST PUSH8 0xFFFFFFFFFFFFFFFF DUP2 GT ISZERO PUSH2 0xE03 JUMPI PUSH2 0xE02 PUSH2 0xC06 JUMP JUMPDEST JUMPDEST PUSH2 0xE0D DUP3 SLOAD PUSH2 0xB43 JUMP JUMPDEST PUSH2 0xE18 DUP3 DUP3 DUP6 PUSH2 0xD54 JUMP JUMPDEST PUSH1 0x0 PUSH1 0x20 SWAP1 POP PUSH1 0x1F DUP4 GT PUSH1 0x1 DUP2 EQ PUSH2 0xE4B JUMPI PUSH1 0x0 DUP5 ISZERO PUSH2 0xE39 JUMPI DUP3 DUP8 ADD MLOAD SWAP1 POP JUMPDEST PUSH2 0xE43 DUP6 DUP3 PUSH2 0xDC5 JUMP JUMPDEST DUP7 SSTORE POP PUSH2 0xEAB JUMP JUMPDEST PUSH1 0x1F NOT DUP5 AND PUSH2 0xE59 DUP7 PUSH2 0xC35 JUMP JUMPDEST PUSH1 0x0 JUMPDEST DUP3 DUP2 LT ISZERO PUSH2 0xE81 JUMPI DUP5 DUP10 ADD MLOAD DUP3 SSTORE PUSH1 0x1 DUP3 ADD SWAP2 POP PUSH1 0x20 DUP6 ADD SWAP5 POP PUSH1 0x20 DUP2 ADD SWAP1 POP PUSH2 0xE5C JUMP JUMPDEST DUP7 DUP4 LT ISZERO PUSH2 0xE9E JUMPI DUP5 DUP10 ADD MLOAD PUSH2 0xE9A PUSH1 0x1F DUP10 AND DUP3 PUSH2 0xDA7 JUMP JUMPDEST DUP4 SSTORE POP JUMPDEST PUSH1 0x1 PUSH1 0x2 DUP9 MUL ADD DUP9 SSTORE POP POP POP JUMPDEST POP POP POP POP POP POP JUMP JUMPDEST PUSH1 0x0 PUSH2 0xEBF DUP4 DUP6 PUSH2 0x9EB JUMP JUMPDEST SWAP4 POP PUSH2 0xECC DUP4 DUP6 DUP5 PUSH2 0xAC7 JUMP JUMPDEST PUSH2 0xED5 DUP4 PUSH2 0xA26 JUMP JUMPDEST DUP5 ADD SWAP1 POP SWAP4 SWAP3 POP POP POP JUMP JUMPDEST PUSH1 0x0 PUSH1 0x60 DUP3 ADD SWAP1 POP PUSH2 0xEF5 PUSH1 0x0 DUP4 ADD DUP8 PUSH2 0x9D1 JUMP JUMPDEST DUP2 DUP2 SUB PUSH1 0x20 DUP4 ADD MSTORE PUSH2 0xF08 DUP2 DUP6 DUP8 PUSH2 0xEB3 JUMP JUMPDEST SWAP1 POP PUSH2 0xF17 PUSH1 0x40 DUP4 ADD DUP5 PUSH2 0x868 JUMP JUMPDEST SWAP6 SWAP5 POP POP POP POP POP JUMP JUMPDEST PUSH32 0x4E6F20636572746966696361746520666F756E64000000000000000000000000 PUSH1 0x0 DUP3 ADD MSTORE POP JUMP JUMPDEST PUSH1 0x0 PUSH2 0xF56 PUSH1 0x14 DUP4 PUSH2 0x9EB JUMP JUMPDEST SWAP2 POP PUSH2 0xF61 DUP3 PUSH2 0xF20 JUMP JUMPDEST PUSH1 0x20 DUP3 ADD SWAP1 POP SWAP2 SWAP1 POP JUMP JUMPDEST PUSH1 0x0 PUSH1 0x20 DUP3 ADD SWAP1 POP DUP2 DUP2 SUB PUSH1 0x0 DUP4 ADD MSTORE PUSH2 0xF85 DUP2 PUSH2 0xF49 JUMP JUMPDEST SWAP1 POP SWAP2 SWAP1 POP JUMP INVALID LOG2 PUSH5 0x6970667358 0x22 SLT KECCAK256 EXTCODECOPY 0xAD PUSH24 0x5BF4971DC29BD4187CEC49DAA88FDB53A03356FE0E074428 LT DUP15 DUP11 0xA7 CALLER PUSH5 0x736F6C6343 STOP ADDMOD SGT STOP CALLER "},"methodIdentifiers":{"getCertificate(string)":"ed0f2e75","recordCertificate(string,bytes32,string)":"38015b46","verifyCertificate(string,bytes32)":"07b86b73"}}}}}