{
  "_format": "hh-sol-artifact-1",
  "contractName": "DeviceWipeRegistry",
  "sourceName": "contracts/DeviceWipeRegistry.sol",
  "abi": [
    {
      "anonymous": false,
      "inputs": [
        {
          "indexed": true,
          "internalType": "string",
          "name": "deviceId",
          "type": "string"
        },
        {
          "indexed": false,
          "internalType": "bytes32",
          "name": "certHash",
          "type": "bytes32"
        },
        {
          "indexed": false,
          "internalType": "string",
          "name": "wipeMethod",
          "type": "string"
        },
        {
          "indexed": false,
          "internalType": "uint256",
          "name": "timestamp",
          "type": "uint256"
        },
        {
          "indexed": true,
          "internalType": "address",
          "name": "issuer",
          "type": "address"
        }
      ],
      "name": "CertificateRecorded",
      "type": "event"
    },
    {
      "inputs": [
        {
          "internalType": "string",
          "name": "deviceId",
          "type": "string"
        }
      ],
      "name": "getCertificate",
      "outputs": [
        {
          "internalType": "bytes32",
          "name": "certHash",
          "type": "bytes32"
        },
        {
          "internalType": "string",
          "name": "wipeMethod",
          "type": "string"
        },
        {
          "internalType": "uint256",
          "name": "timestamp",
          "type": "uint256"
        },
        {
          "internalType": "address",
          "name": "issuer",
          "type": "address"
        }
      ],
      "stateMutability": "view",
      "type": "function"
    },
    {
      "inputs": [
        {
          "internalType": "string",
          "name": "deviceId",
          "type": "string"
        },
        {
          "internalType": "bytes32",
          "name": "certHash",
          "type": "bytes32"
        },
        {
          "internalType": "string",
          "name": "wipeMethod",
          "type": "string"
        }
      ],
      "name": "recordCertificate",
      "outputs": [],
      "stateMutability": "nonpayable",
      "type": "function"
    },
    {
      "inputs": [
        {
          "internalType": "string",
          "name": "deviceId",
          "type": "string"
        },
        {
          "internalType": "bytes32",
          "name": "certHash",
          "type": "bytes32"
        }
      ],
      "name": "verifyCertificate",
      "outputs": [
        {
          "internalType": "bool",
          "name": "valid",
          "type": "bool"
        },
        {
          "internalType": "uint256",
          "name": "timestamp",
          "type": "uint256"
        },
        {
          "internalType": "address",
          "name": "issuer",
          "type": "address"
        }
      ],
      "stateMutability": "view",
      "type": "function"
    }
  ],
  "bytecode": "0x608060405234801561001057600080fd5b50610fc2806100206000396000f3fe608060405234801561001057600080fd5b50600436106100415760003560e01c806307b86b731461004657806338015b4614610078578063ed0f2e7514610094575b600080fd5b610060600480360381019061005b91906107e3565b6100c7565b60405161006f939291906108b8565b60405180910390f35b610092600480360381019061008d91906108ef565b6102c7565b005b6100ae60048036038101906100a99190610984565b61050e565b6040516100be9493929190610a70565b60405180910390f35b600080600080600087876040516100df929190610afb565b90815260200160405180910390206040518060a00160405290816000820154815260200160018201805461011290610b43565b80601f016020809104026020016040519081016040528092919081815260200182805461013e90610b43565b801561018b5780601f106101605761010080835404028352916020019161018b565b820191906000526020600020905b81548152906001019060200180831161016e57829003601f168201915b505050505081526020016002820180546101a490610b43565b80601f01602080910402602001604051908101604052809291908181526020018280546101d090610b43565b801561021d5780601f106101f25761010080835404028352916020019161021d565b820191906000526020600020905b81548152906001019060200180831161020057829003601f168201915b50505050508152602001600382015481526020016004820160009054906101000a900473ffffffffffffffffffffffffffffffffffffffff1673ffffffffffffffffffffffffffffffffffffffff1673ffffffffffffffffffffffffffffffffffffffff1681525050905060008160600151036102a5576000806000935093509350506102be565b8481600001511481606001518260800151935093509350505b93509350939050565b60008086866040516102da929190610afb565b9081526020016040518091039020600301541461032c576040517f08c379a000000000000000000000000000000000000000000000000000000000815260040161032390610be6565b60405180910390fd5b6040518060a0016040528084815260200186868080601f016020809104026020016040519081016040528093929190818152602001838380828437600081840152601f19601f82011690508083019250505050505050815260200183838080601f016020809104026020016040519081016040528093929190818152602001838380828437600081840152601f19601f8201169050808301925050505050505081526020014281526020013373ffffffffffffffffffffffffffffffffffffffff1681525060008686604051610403929190610afb565b90815260200160405180910390206000820151816000015560208201518160010190816104309190610de1565b5060408201518160020190816104469190610de1565b506060820151816003015560808201518160040160006101000a81548173ffffffffffffffffffffffffffffffffffffffff021916908373ffffffffffffffffffffffffffffffffffffffff1602179055509050503373ffffffffffffffffffffffffffffffffffffffff1685856040516104c2929190610afb565b60405180910390207f7819c6f48118857fd31c2d95184bad462bbc83de72fe118d73e44c931c131164858585426040516104ff9493929190610ee0565b60405180910390a35050505050565b600060606000806000808787604051610528929190610afb565b90815260200160405180910390206040518060a00160405290816000820154815260200160018201805461055b90610b43565b80601f016020809104026020016040519081016040528092919081815260200182805461058790610b43565b80156105d45780601f106105a9576101008083540402835291602001916105d4565b820191906000526020600020905b8154815290600101906020018083116105b757829003601f168201915b505050505081526020016002820180546105ed90610b43565b80601f016020809104026020016040519081016040528092919081815260200182805461061990610b43565b80156106665780601f1061063b57610100808354040283529160200191610666565b820191906000526020600020905b81548152906001019060200180831161064957829003601f168201915b50505050508152602001600382015481526020016004820160009054906101000a900473ffffffffffffffffffffffffffffffffffffffff1673ffffffffffffffffffffffffffffffffffffffff1673ffffffffffffffffffffffffffffffffffffffff168152505090506000816060015103610718576040517f08c379a000000000000000000000000000000000000000000000000000000000815260040161070f90610f6c565b60405180910390fd5b806000015181604001518260600151836080015194509450945094505092959194509250565b600080fd5b600080fd5b600080fd5b600080fd5b600080fd5b60008083601f84011261076d5761076c610748565b5b8235905067ffffffffffffffff81111561078a5761078961074d565b5b6020830191508360018202830111156107a6576107a5610752565b5b9250929050565b6000819050919050565b6107c0816107ad565b81146107cb57600080fd5b50565b6000813590506107dd816107b7565b92915050565b6000806000604084860312156107fc576107fb61073e565b5b600084013567ffffffffffffffff81111561081a57610819610743565b5b61082686828701610757565b93509350506020610839868287016107ce565b9150509250925092565b60008115159050919050565b61085881610843565b82525050565b6000819050919050565b6108718161085e565b82525050565b600073ffffffffffffffffffffffffffffffffffffffff82169050919050565b60006108a282610877565b9050919050565b6108b281610897565b82525050565b60006060820190506108cd600083018661084f565b6108da6020830185610868565b6108e760408301846108a9565b949350505050565b60008060008060006060868803121561090b5761090a61073e565b5b600086013567ffffffffffffffff81111561092957610928610743565b5b61093588828901610757565b95509550506020610948888289016107ce565b935050604086013567ffffffffffffffff81111561096957610968610743565b5b61097588828901610757565b92509250509295509295909350565b6000806020838503121561099b5761099a61073e565b5b600083013567ffffffffffffffff8111156109b9576109b8610743565b5b6109c585828601610757565b92509250509250929050565b6109da816107ad565b82525050565b600081519050919050565b600082825260208201905092915050565b60005b83811015610a1a5780820151818401526020810190506109ff565b60008484015250505050565b6000601f19601f8301169050919050565b6000610a42826109e0565b610a4c81856109eb565b9350610a5c8185602086016109fc565b610a6581610a26565b840191505092915050565b6000608082019050610a8560008301876109d1565b8181036020830152610a978186610a37565b9050610aa66040830185610868565b610ab360608301846108a9565b95945050505050565b600081905092915050565b82818337600083830152505050565b6000610ae28385610abc565b9350610aef838584610ac7565b82840190509392505050565b6000610b08828486610ad6565b91508190509392505050565b7f4e487b7100000000000000000000000000000000000000000000000000000000600052602260045260246000fd5b60006002820490506001821680610b5b57607f821691505b602082108103610b6e57610b6d610b14565b5b50919050565b7f436572746966696361746520616c72656164792065786973747320666f72206460008201527f6576696365000000000000000000000000000000000000000000000000000000602082015250565b6000610bd06025836109eb565b9150610bdb82610b74565b604082019050919050565b60006020820190508181036000830152610bff81610bc3565b9050919050565b7f4e487b7100000000000000000000000000000000000000000000000000000000600052604160045260246000fd5b60008190508160005260206000209050919050565b60006020601f8301049050919050565b600082821b905092915050565b600060088302610c977fffffffffffffffffffffffffffffffffffffffffffffffffffffffffffffffff82610c5a565b610ca18683610c5a565b95508019841693508086168417925050509392505050565b6000819050919050565b6000610cde610cd9610cd48461085e565b610cb9565b61085e565b9050919050565b6000819050919050565b610cf883610cc3565b610d0c610d0482610ce5565b848454610c67565b825550505050565b600090565b610d21610d14565b610d2c818484610cef565b505050565b5b81811015610d5057610d45600082610d19565b600181019050610d32565b5050565b601f821115610d9557610d6681610c35565b610d6f84610c4a565b81016020851015610d7e578190505b610d92610d8a85610c4a565b830182610d31565b50505b505050565b600082821c905092915050565b6000610db860001984600802610d9a565b1980831691505092915050565b6000610dd18383610da7565b9150826002028217905092915050565b610dea826109e0565b67ffffffffffffffff811115610e0357610e02610c06565b5b610e0d8254610b43565b610e18828285610d54565b600060209050601f831160018114610e4b5760008415610e39578287015190505b610e438582610dc5565b865550610eab565b601f198416610e5986610c35565b60005b82811015610e8157848901518255600182019150602085019450602081019050610e5c565b86831015610e9e5784890151610e9a601f891682610da7565b8355505b6001600288020188555050505b505050505050565b6000610ebf83856109eb565b9350610ecc838584610ac7565b610ed583610a26565b840190509392505050565b6000606082019050610ef560008301876109d1565b8181036020830152610f08818587610eb3565b9050610f176040830184610868565b95945050505050565b7f4e6f20636572746966696361746520666f756e64000000000000000000000000600082015250565b6000610f566014836109eb565b9150610f6182610f20565b602082019050919050565b60006020820190508181036000830152610f8581610f49565b905091905056fea26469706673582212203cad775bf4971dc29bd4187cec49daa88fdb53a03356fe0e074428108e8aa73364736f6c63430008130033",
  "linkReferences": {},
  "deployedLinkReferences": {}
}